{
  "contractName": "Adoption",
  "abi": [
    {
      "inputs": [],
      "payable": false,
      "stateMutability": "nonpayable",
      "type": "constructor"
    },
    {
      "anonymous": false,
      "inputs": [
        {
          "indexed": true,
          "internalType": "uint256",
          "name": "_candidateId",
          "type": "uint256"
        }
      ],
      "name": "votedEvent",
      "type": "event"
    },
    {
      "constant": true,
      "inputs": [
        {
          "internalType": "uint256",
          "name": "",
          "type": "uint256"
        }
      ],
      "name": "adopters",
      "outputs": [
        {
          "internalType": "address",
          "name": "",
          "type": "address"
        }
      ],
      "payable": false,
      "stateMutability": "view",
      "type": "function"
    },
    {
      "constant": true,
      "inputs": [
        {
          "internalType": "uint256",
          "name": "",
          "type": "uint256"
        }
      ],
      "name": "candidates",
      "outputs": [
        {
          "internalType": "uint256",
          "name": "id",
          "type": "uint256"
        },
        {
          "internalType": "string",
          "name": "name",
          "type": "string"
        },
        {
          "internalType": "uint256",
          "name": "voteCount",
          "type": "uint256"
        }
      ],
      "payable": false,
      "stateMutability": "view",
      "type": "function"
    },
    {
      "constant": true,
      "inputs": [],
      "name": "candidatesCount",
      "outputs": [
        {
          "internalType": "uint256",
          "name": "",
          "type": "uint256"
        }
      ],
      "payable": false,
      "stateMutability": "view",
      "type": "function"
    },
    {
      "constant": true,
      "inputs": [],
      "name": "owner",
      "outputs": [
        {
          "internalType": "address",
          "name": "",
          "type": "address"
        }
      ],
      "payable": false,
      "stateMutability": "view",
      "type": "function"
    },
    {
      "constant": true,
      "inputs": [
        {
          "internalType": "address",
          "name": "",
          "type": "address"
        }
      ],
      "name": "voters",
      "outputs": [
        {
          "internalType": "bool",
          "name": "",
          "type": "bool"
        }
      ],
      "payable": false,
      "stateMutability": "view",
      "type": "function"
    },
    {
      "constant": false,
      "inputs": [
        {
          "internalType": "uint256",
          "name": "petId",
          "type": "uint256"
        }
      ],
      "name": "adopt",
      "outputs": [
        {
          "internalType": "uint256",
          "name": "",
          "type": "uint256"
        }
      ],
      "payable": true,
      "stateMutability": "payable",
      "type": "function"
    },
    {
      "constant": true,
      "inputs": [],
      "name": "getAdopters",
      "outputs": [
        {
          "internalType": "address[16]",
          "name": "",
          "type": "address[16]"
        }
      ],
      "payable": false,
      "stateMutability": "view",
      "type": "function"
    },
    {
      "constant": false,
      "inputs": [
        {
          "internalType": "uint256",
          "name": "_candidateId",
          "type": "uint256"
        }
      ],
      "name": "vote",
      "outputs": [],
      "payable": false,
      "stateMutability": "nonpayable",
      "type": "function"
    }
  ],
  "bytecode": "0x608060405233601060006101000a81548173ffffffffffffffffffffffffffffffffffffffff021916908373ffffffffffffffffffffffffffffffffffffffff1602179055503480156200005257600080fd5b50620000996040518060400160405280601981526020017f467269656461202d2053636f7474697368205465727269657200000000000000815250620004b960201b60201c565b620000df6040518060400160405280601781526020017f47696e61202d2053636f74746973682054657272696572000000000000000000815250620004b960201b60201c565b620001256040518060400160405280601881526020017f436f6c6c696e73202d204672656e63682042756c6c646f670000000000000000815250620004b960201b60201c565b6200016b6040518060400160405280600f81526020017f4d656c69737361202d20426f7865720000000000000000000000000000000000815250620004b960201b60201c565b620001b16040518060400160405280601881526020017f4a65616e696e65202d204672656e63682042756c6c646f670000000000000000815250620004b960201b60201c565b620001f76040518060400160405280601681526020017f456c766961202d204672656e63682042756c6c646f6700000000000000000000815250620004b960201b60201c565b6200023d6040518060400160405280601a81526020017f4c617468697361202d20476f6c64656e20526574726965766572000000000000815250620004b960201b60201c565b620002836040518060400160405280601a81526020017f436f6c656d616e202d20476f6c64656e20526574726965766572000000000000815250620004b960201b60201c565b620002c96040518060400160405280601881526020017f4e6963686f6c65202d204672656e63682042756c6c646f670000000000000000815250620004b960201b60201c565b6200030f6040518060400160405280600c81526020017f4672616e202d20426f7865720000000000000000000000000000000000000000815250620004b960201b60201c565b620003556040518060400160405280600e81526020017f4c656f6e6f72202d20426f786572000000000000000000000000000000000000815250620004b960201b60201c565b6200039b6040518060400160405280601781526020017f4465616e202d2053636f74746973682054657272696572000000000000000000815250620004b960201b60201c565b620003e16040518060400160405280601a81526020017f53746576656e736f6e202d204672656e63682042756c6c646f67000000000000815250620004b960201b60201c565b620004276040518060400160405280601b81526020017f4b72697374696e61202d20476f6c64656e205265747269657665720000000000815250620004b960201b60201c565b6200046d6040518060400160405280601881526020017f457468656c202d20476f6c64656e205265747269657665720000000000000000815250620004b960201b60201c565b620004b36040518060400160405280601881526020017f5465727279202d20476f6c64656e205265747269657665720000000000000000815250620004b960201b60201c565b620005e6565b6013600081548092919060010191905055506040518060600160405280601354815260200182815260200160008152506012600060135481526020019081526020016000206000820151816000015560208201518160010190805190602001906200052692919062000537565b506040820151816002015590505050565b828054600181600116156101000203166002900490600052602060002090601f016020900481019282601f106200057a57805160ff1916838001178555620005ab565b82800160010185558215620005ab579182015b82811115620005aa5782518255916020019190600101906200058d565b5b509050620005ba9190620005be565b5090565b620005e391905b80821115620005df576000816000905550600101620005c5565b5090565b90565b61072380620005f66000396000f3fe60806040526004361061007b5760003560e01c806343ae80d31161004e57806343ae80d3146101fb5780638588b2c5146102765780638da5cb5b146102b8578063a3ec138d1461030f5761007b565b80630121b93f146100805780632d35a8a2146100bb5780633477ee2e146100e65780633de4eb17146101a8575b600080fd5b34801561008c57600080fd5b506100b9600480360360208110156100a357600080fd5b8101908080359060200190929190505050610378565b005b3480156100c757600080fd5b506100d0610498565b6040518082815260200191505060405180910390f35b3480156100f257600080fd5b5061011f6004803603602081101561010957600080fd5b810190808035906020019092919050505061049e565b6040518084815260200180602001838152602001828103825284818151815260200191508051906020019080838360005b8381101561016b578082015181840152602081019050610150565b50505050905090810190601f1680156101985780820380516001836020036101000a031916815260200191505b5094505050505060405180910390f35b3480156101b457600080fd5b506101bd610560565b6040518082601060200280838360005b838110156101e85780820151818401526020810190506101cd565b5050505090500191505060405180910390f35b34801561020757600080fd5b506102346004803603602081101561021e57600080fd5b81019080803590602001909291905050506105e1565b604051808273ffffffffffffffffffffffffffffffffffffffff1673ffffffffffffffffffffffffffffffffffffffff16815260200191505060405180910390f35b6102a26004803603602081101561028c57600080fd5b8101908080359060200190929190505050610614565b6040518082815260200191505060405180910390f35b3480156102c457600080fd5b506102cd610685565b604051808273ffffffffffffffffffffffffffffffffffffffff1673ffffffffffffffffffffffffffffffffffffffff16815260200191505060405180910390f35b34801561031b57600080fd5b5061035e6004803603602081101561033257600080fd5b81019080803573ffffffffffffffffffffffffffffffffffffffff1690602001909291905050506106ab565b604051808215151515815260200191505060405180910390f35b601160003373ffffffffffffffffffffffffffffffffffffffff1673ffffffffffffffffffffffffffffffffffffffff16815260200190815260200160002060009054906101000a900460ff16156103cf57600080fd5b6000811180156103e157506013548111155b6103ea57600080fd5b6001601160003373ffffffffffffffffffffffffffffffffffffffff1673ffffffffffffffffffffffffffffffffffffffff16815260200190815260200160002060006101000a81548160ff0219169083151502179055506012600082815260200190815260200160002060020160008154809291906001019190505550807ffff3c900d938d21d0990d786e819f29b8d05c1ef587b462b939609625b684b1660405160405180910390a250565b60135481565b6012602052806000526040600020600091509050806000015490806001018054600181600116156101000203166002900480601f0160208091040260200160405190810160405280929190818152602001828054600181600116156101000203166002900480156105505780601f1061052557610100808354040283529160200191610550565b820191906000526020600020905b81548152906001019060200180831161053357829003601f168201915b5050505050908060020154905083565b6105686106cb565b60006010806020026040519081016040528092919082601080156105d7576020028201915b8160009054906101000a900473ffffffffffffffffffffffffffffffffffffffff1673ffffffffffffffffffffffffffffffffffffffff168152602001906001019080831161058d575b5050505050905090565b600081601081106105ee57fe5b016000915054906101000a900473ffffffffffffffffffffffffffffffffffffffff1681565b60008082101580156106275750600f8211155b61063057600080fd5b336000836010811061063e57fe5b0160006101000a81548173ffffffffffffffffffffffffffffffffffffffff021916908373ffffffffffffffffffffffffffffffffffffffff160217905550819050919050565b601060009054906101000a900473ffffffffffffffffffffffffffffffffffffffff1681565b60116020528060005260406000206000915054906101000a900460ff1681565b60405180610200016040528060109060208202803883398082019150509050509056fea265627a7a7231582035791d7034e5ab89755f0f71b134696aa8c699cb8000c98c44c665877a9f857464736f6c63430005100032",
  "source": "pragma solidity ^0.5.0;\n\ncontract Adoption {\n\t//variable declaration\n\taddress[16] public adopters;\n\n        address public owner = msg.sender;\n\n\t//Adopting a pet\n\tfunction adopt(uint petId) payable public returns (uint) {\n\t\trequire (petId >= 0 && petId <= 15);\n\t\tadopters[petId] = msg.sender;\n\t\treturn petId;\n\t}\n\n\t// Retreving the adopters\n\tfunction getAdopters() public view returns (address[16] memory) {\n\t\treturn adopters;\n\t}\n\n\tevent votedEvent (\n        uint indexed _candidateId\n    );\n\n    // Model a Candidate\n    struct Candidate {\n        uint id;\n        string name;\n        uint voteCount;\n    }\n\n    // Store accounts that have voted\n    mapping(address => bool) public voters;\n\n    // Read/write candidates\n    mapping(uint => Candidate) public candidates;\n\n    // Store Candidates Count\n    uint public candidatesCount;\n\n    constructor() public {\n        addCandidate(\"Frieda - Scottish Terrier\");\n        addCandidate(\"Gina - Scottish Terrier\");\n        addCandidate(\"Collins - French Bulldog\");\n        addCandidate(\"Melissa - Boxer\");\n        addCandidate(\"Jeanine - French Bulldog\");\n        addCandidate(\"Elvia - French Bulldog\");\n        addCandidate(\"Lathisa - Golden Retriever\");\n        addCandidate(\"Coleman - Golden Retriever\");\n        addCandidate(\"Nichole - French Bulldog\");\n        addCandidate(\"Fran - Boxer\");\n        addCandidate(\"Leonor - Boxer\");\n        addCandidate(\"Dean - Scottish Terrier\");\n        addCandidate(\"Stevenson - French Bulldog\");\n        addCandidate(\"Kristina - Golden Retriever\");\n        addCandidate(\"Ethel - Golden Retriever\");\n        addCandidate(\"Terry - Golden Retriever\");\n    }\n\n    function addCandidate (string memory _name) private {\n        candidatesCount ++;\n        candidates[candidatesCount] = Candidate(candidatesCount, _name, 0);\n    }\n\n    function vote (uint _candidateId) public {\n        // require that they haven't voted before\n        require(!voters[msg.sender]);\n\n        // require a valid candidate\n        require(_candidateId > 0 && _candidateId <= candidatesCount);\n\n        // record that voter has voted\n        voters[msg.sender] = true;\n\n        // update candidate vote Count\n        candidates[_candidateId].voteCount ++;\n\n        // trigger voted event\n        emit votedEvent(_candidateId);\n    }\n\n}",
  "sourcePath": "C:\\Users\\Ruchita\\Desktop\\Alan.Chacko_Asm.Sajid\\Alan.Chacko_Asm.Sajid\\pet-shop\\pet-shop\\contracts\\Adoption.sol",
  "compiler": {
    "name": "solc",
    "version": "0.5.16+commit.9c3226ce.Emscripten.clang"
  },
  "schemaVersion": "3.4.8",
  "updatedAt": "2022-08-13T00:08:38.107Z",
  "devdoc": {
    "methods": {}
  },
  "userdoc": {
    "methods": {}
  }
}